{
  "contractName": "Counter",
  "abi": [
    {
      "inputs": [
        {
          "internalType": "address",
          "name": "Admin",
          "type": "address"
        }
      ],
      "stateMutability": "nonpayable",
      "type": "constructor"
    },
    {
      "anonymous": false,
      "inputs": [
        {
          "indexed": true,
          "internalType": "address",
          "name": "addr",
          "type": "address"
        },
        {
          "indexed": false,
          "internalType": "uint256",
          "name": "total",
          "type": "uint256"
        },
        {
          "indexed": false,
          "internalType": "uint256",
          "name": "timestamp",
          "type": "uint256"
        }
      ],
      "name": "Hit",
      "type": "event"
    },
    {
      "inputs": [
        {
          "internalType": "bool",
          "name": "status",
          "type": "bool"
        }
      ],
      "name": "admin_switch",
      "outputs": [],
      "stateMutability": "nonpayable",
      "type": "function"
    },
    {
      "inputs": [],
      "name": "hit",
      "outputs": [
        {
          "internalType": "uint256",
          "name": "",
          "type": "uint256"
        }
      ],
      "stateMutability": "nonpayable",
      "type": "function"
    }
  ],
  "bytecode": "0x608060405234801561001057600080fd5b506040516104c13803806104c1833981810160405281019061003291906100f6565b60016000806101000a81548160ff02191690831515021790555080600060016101000a81548173ffffffffffffffffffffffffffffffffffffffff021916908373ffffffffffffffffffffffffffffffffffffffff16021790555050610123565b600080fd5b600073ffffffffffffffffffffffffffffffffffffffff82169050919050565b60006100c382610098565b9050919050565b6100d3816100b8565b81146100de57600080fd5b50565b6000815190506100f0816100ca565b92915050565b60006020828403121561010c5761010b610093565b5b600061011a848285016100e1565b91505092915050565b61038f806101326000396000f3fe608060405234801561001057600080fd5b50600436106100365760003560e01c80632ae3594a1461003b578063c2304e5c14610059575b600080fd5b610043610075565b6040516100509190610248565b60405180910390f35b610073600480360381019061006e91906102a0565b6101b9565b005b60008060009054906101000a900460ff1661008f57600080fd5b60018060003373ffffffffffffffffffffffffffffffffffffffff1673ffffffffffffffffffffffffffffffffffffffff16815260200190815260200160002060008282546100de91906102fc565b925050819055503373ffffffffffffffffffffffffffffffffffffffff167fd000df79faa8b0dfa56bea983e1be296528d42b31663d98e989c4db27d3d294e600160003373ffffffffffffffffffffffffffffffffffffffff1673ffffffffffffffffffffffffffffffffffffffff168152602001908152602001600020544260405161016c929190610330565b60405180910390a2600160003373ffffffffffffffffffffffffffffffffffffffff1673ffffffffffffffffffffffffffffffffffffffff16815260200190815260200160002054905090565b600060019054906101000a900473ffffffffffffffffffffffffffffffffffffffff1673ffffffffffffffffffffffffffffffffffffffff163373ffffffffffffffffffffffffffffffffffffffff161461021357600080fd5b806000806101000a81548160ff02191690831515021790555050565b6000819050919050565b6102428161022f565b82525050565b600060208201905061025d6000830184610239565b92915050565b600080fd5b60008115159050919050565b61027d81610268565b811461028857600080fd5b50565b60008135905061029a81610274565b92915050565b6000602082840312156102b6576102b5610263565b5b60006102c48482850161028b565b91505092915050565b7f4e487b7100000000000000000000000000000000000000000000000000000000600052601160045260246000fd5b60006103078261022f565b91506103128361022f565b925082820190508082111561032a576103296102cd565b5b92915050565b60006040820190506103456000830185610239565b6103526020830184610239565b939250505056fea2646970667358221220b790c7477091cf0d823aa24c72def58a773aa5cf0385af994873968c4743530864736f6c63430008130033",
  "immutableReferences": {},
  "source": "// SPDX-License-Identifier: MIT\npragma solidity ^0.8.7;\n\ncontract Counter {\n\n    event Hit(\n        address indexed addr,\n        uint256 total,\n        uint256 timestamp\n    );\n\n    bool hitSwitch;\n    address admin;\n    mapping(address => uint256) ref;\n\n    modifier isAdmin() {\n        require(msg.sender == admin);\n        _;\n    }\n\n    constructor(address Admin) {\n        hitSwitch = true;\n        admin = Admin;\n    }\n\n    modifier isSwitch() {\n        require(hitSwitch);\n        _;\n    }\n\n    function admin_switch(bool status) isAdmin() public {\n        hitSwitch = status;\n    }\n\n    function hit() isSwitch() public returns (uint) {\n        ref[msg.sender] += 1;\n        emit Hit(msg.sender, ref[msg.sender], block.timestamp);\n        return ref[msg.sender];\n    }\n}",
  "sourcePath": "/Users/liuxi/Desktop/aigc/counter/contracts/counter.sol",
  "compiler": {
    "name": "solc",
    "version": "0.8.19+commit.7dd6d404.Emscripten.clang"
  },
  "schemaVersion": "3.4.13",
  "updatedAt": "2023-06-01T07:14:38.763Z",
  "networkType": "ethereum",
  "devdoc": {
    "kind": "dev",
    "methods": {},
    "version": 1
  },
  "userdoc": {
    "kind": "user",
    "methods": {},
    "version": 1
  }
}