{
  "contractName": "NftMarketplace",
  "abi": [
    {
      "inputs": [
        {
          "internalType": "address",
          "name": "marketFeeReceiver",
          "type": "address"
        },
        {
          "internalType": "uint96",
          "name": "marketFeeNum",
          "type": "uint96"
        },
        {
          "internalType": "address",
          "name": "administrator",
          "type": "address"
        }
      ],
      "stateMutability": "nonpayable",
      "type": "constructor"
    },
    {
      "inputs": [],
      "name": "IsNotOwner",
      "type": "error"
    },
    {
      "inputs": [
        {
          "internalType": "address",
          "name": "nftAddress",
          "type": "address"
        },
        {
          "internalType": "uint256",
          "name": "tokenId",
          "type": "uint256"
        }
      ],
      "name": "NotListed",
      "type": "error"
    },
    {
      "inputs": [],
      "name": "NotOwner",
      "type": "error"
    },
    {
      "inputs": [],
      "name": "PriceMustBeAboveZero",
      "type": "error"
    },
    {
      "inputs": [
        {
          "internalType": "address",
          "name": "nftAddress",
          "type": "address"
        },
        {
          "internalType": "uint256",
          "name": "tokenId",
          "type": "uint256"
        },
        {
          "internalType": "uint256",
          "name": "price",
          "type": "uint256"
        }
      ],
      "name": "PriceNotMet",
      "type": "error"
    },
    {
      "anonymous": false,
      "inputs": [
        {
          "indexed": false,
          "internalType": "address",
          "name": "sender",
          "type": "address"
        },
        {
          "indexed": false,
          "internalType": "address",
          "name": "oldAdmin",
          "type": "address"
        },
        {
          "indexed": false,
          "internalType": "address",
          "name": "newAdmin",
          "type": "address"
        }
      ],
      "name": "AdminModified",
      "type": "event"
    },
    {
      "anonymous": false,
      "inputs": [
        {
          "indexed": false,
          "internalType": "address",
          "name": "sender",
          "type": "address"
        },
        {
          "indexed": false,
          "internalType": "address",
          "name": "oldReceiver",
          "type": "address"
        },
        {
          "indexed": false,
          "internalType": "address",
          "name": "newReceiver",
          "type": "address"
        }
      ],
      "name": "BenificiaryModified",
      "type": "event"
    },
    {
      "anonymous": false,
      "inputs": [
        {
          "indexed": true,
          "internalType": "address",
          "name": "buyer",
          "type": "address"
        },
        {
          "indexed": false,
          "internalType": "address",
          "name": "seller",
          "type": "address"
        },
        {
          "indexed": true,
          "internalType": "address",
          "name": "nftAddress",
          "type": "address"
        },
        {
          "indexed": true,
          "internalType": "uint256",
          "name": "tokenId",
          "type": "uint256"
        },
        {
          "indexed": false,
          "internalType": "uint256",
          "name": "price",
          "type": "uint256"
        }
      ],
      "name": "ItemBought",
      "type": "event"
    },
    {
      "anonymous": false,
      "inputs": [
        {
          "indexed": true,
          "internalType": "address",
          "name": "seller",
          "type": "address"
        },
        {
          "indexed": true,
          "internalType": "address",
          "name": "nftAddress",
          "type": "address"
        },
        {
          "indexed": true,
          "internalType": "uint256",
          "name": "tokenId",
          "type": "uint256"
        }
      ],
      "name": "ItemCanceled",
      "type": "event"
    },
    {
      "anonymous": false,
      "inputs": [
        {
          "indexed": true,
          "internalType": "address",
          "name": "seller",
          "type": "address"
        },
        {
          "indexed": true,
          "internalType": "address",
          "name": "nftAddress",
          "type": "address"
        },
        {
          "indexed": true,
          "internalType": "uint256",
          "name": "tokenId",
          "type": "uint256"
        },
        {
          "indexed": false,
          "internalType": "uint256",
          "name": "price",
          "type": "uint256"
        }
      ],
      "name": "ItemListed",
      "type": "event"
    },
    {
      "anonymous": false,
      "inputs": [
        {
          "indexed": false,
          "internalType": "address",
          "name": "sender",
          "type": "address"
        },
        {
          "indexed": false,
          "internalType": "uint96",
          "name": "oldFee",
          "type": "uint96"
        },
        {
          "indexed": false,
          "internalType": "uint96",
          "name": "newFee",
          "type": "uint96"
        }
      ],
      "name": "MarkeFeeModified",
      "type": "event"
    },
    {
      "anonymous": false,
      "inputs": [
        {
          "indexed": false,
          "internalType": "address",
          "name": "sender",
          "type": "address"
        },
        {
          "indexed": false,
          "internalType": "bool",
          "name": "oldStatus",
          "type": "bool"
        },
        {
          "indexed": false,
          "internalType": "bool",
          "name": "newStatus",
          "type": "bool"
        }
      ],
      "name": "MarkeStatusModified",
      "type": "event"
    },
    {
      "inputs": [
        {
          "internalType": "address",
          "name": "ad",
          "type": "address"
        }
      ],
      "name": "modifyAdmin",
      "outputs": [],
      "stateMutability": "nonpayable",
      "type": "function"
    },
    {
      "inputs": [
        {
          "internalType": "bool",
          "name": "status",
          "type": "bool"
        }
      ],
      "name": "modifyMarketStatus",
      "outputs": [],
      "stateMutability": "nonpayable",
      "type": "function"
    },
    {
      "inputs": [
        {
          "internalType": "uint96",
          "name": "feeNum",
          "type": "uint96"
        }
      ],
      "name": "modifyMarketFee",
      "outputs": [],
      "stateMutability": "nonpayable",
      "type": "function"
    },
    {
      "inputs": [
        {
          "internalType": "address",
          "name": "receiver",
          "type": "address"
        }
      ],
      "name": "modifyBeneficiary",
      "outputs": [],
      "stateMutability": "nonpayable",
      "type": "function"
    },
    {
      "inputs": [
        {
          "internalType": "address",
          "name": "nftAddress",
          "type": "address"
        },
        {
          "internalType": "address",
          "name": "seller",
          "type": "address"
        },
        {
          "internalType": "uint256",
          "name": "tokenId",
          "type": "uint256"
        },
        {
          "internalType": "uint256",
          "name": "price",
          "type": "uint256"
        }
      ],
      "name": "listItem",
      "outputs": [],
      "stateMutability": "nonpayable",
      "type": "function"
    },
    {
      "inputs": [
        {
          "internalType": "address",
          "name": "nftAddress",
          "type": "address"
        },
        {
          "internalType": "uint256",
          "name": "tokenId",
          "type": "uint256"
        }
      ],
      "name": "cancelListing",
      "outputs": [],
      "stateMutability": "nonpayable",
      "type": "function"
    },
    {
      "inputs": [
        {
          "internalType": "address",
          "name": "nftAddress",
          "type": "address"
        },
        {
          "internalType": "uint256",
          "name": "tokenId",
          "type": "uint256"
        }
      ],
      "name": "buyItem",
      "outputs": [],
      "stateMutability": "payable",
      "type": "function"
    },
    {
      "inputs": [
        {
          "internalType": "address",
          "name": "nftAddress",
          "type": "address"
        },
        {
          "internalType": "uint256",
          "name": "tokenId",
          "type": "uint256"
        },
        {
          "internalType": "uint256",
          "name": "newPrice",
          "type": "uint256"
        }
      ],
      "name": "updateListing",
      "outputs": [],
      "stateMutability": "nonpayable",
      "type": "function"
    },
    {
      "inputs": [
        {
          "internalType": "address",
          "name": "nftAddress",
          "type": "address"
        },
        {
          "internalType": "uint256",
          "name": "tokenId",
          "type": "uint256"
        }
      ],
      "name": "getListingByNFT",
      "outputs": [
        {
          "components": [
            {
              "internalType": "uint256",
              "name": "price",
              "type": "uint256"
            },
            {
              "internalType": "address",
              "name": "seller",
              "type": "address"
            },
            {
              "internalType": "bool",
              "name": "available",
              "type": "bool"
            }
          ],
          "internalType": "struct NftMarketplace.ListingInfo",
          "name": "",
          "type": "tuple"
        }
      ],
      "stateMutability": "view",
      "type": "function"
    }
  ],
  "bytecode": "0x60806040523480156200001157600080fd5b50604051620029eb380380620029eb8339818101604052810190620000379190620001c9565b600160008190555081600260006101000a8154816bffffffffffffffffffffffff02191690836bffffffffffffffffffffffff160217905550826002600c6101000a81548173ffffffffffffffffffffffffffffffffffffffff021916908373ffffffffffffffffffffffffffffffffffffffff16021790555080600360006101000a81548173ffffffffffffffffffffffffffffffffffffffff021916908373ffffffffffffffffffffffffffffffffffffffff1602179055506001600360146101000a81548160ff02191690831515021790555050505062000225565b600080fd5b600073ffffffffffffffffffffffffffffffffffffffff82169050919050565b600062000148826200011b565b9050919050565b6200015a816200013b565b81146200016657600080fd5b50565b6000815190506200017a816200014f565b92915050565b60006bffffffffffffffffffffffff82169050919050565b620001a38162000180565b8114620001af57600080fd5b50565b600081519050620001c38162000198565b92915050565b600080600060608486031215620001e557620001e462000116565b5b6000620001f58682870162000169565b93505060206200020886828701620001b2565b92505060406200021b8682870162000169565b9150509250925092565b6127b680620002356000396000f3fe6080604052600436106100865760003560e01c80639c572350116100595780639c572350146101435780639f37092a1461016c578063b2ddee0614610188578063ebc73d0b146101b1578063f772adf1146101da57610086565b8063055b1edd1461008b578063070ddaf3146100b457806356f57f98146100f157806366c71a2e1461011a575b600080fd5b34801561009757600080fd5b506100b260048036038101906100ad9190611cb7565b610203565b005b3480156100c057600080fd5b506100db60048036038101906100d69190611d1a565b61033a565b6040516100e89190611dd5565b60405180910390f35b3480156100fd57600080fd5b5061011860048036038101906101139190611df0565b610596565b005b34801561012657600080fd5b50610141600480360381019061013c9190611e9b565b6109c1565b005b34801561014f57600080fd5b5061016a60048036038101906101659190611ef4565b610ae0565b005b61018660048036038101906101819190611d1a565b610bdd565b005b34801561019457600080fd5b506101af60048036038101906101aa9190611d1a565b6114a4565b005b3480156101bd57600080fd5b506101d860048036038101906101d39190611cb7565b6116c4565b005b3480156101e657600080fd5b5061020160048036038101906101fc9190611f21565b6117fb565b005b600360009054906101000a900473ffffffffffffffffffffffffffffffffffffffff1673ffffffffffffffffffffffffffffffffffffffff163373ffffffffffffffffffffffffffffffffffffffff1614610293576040517f08c379a000000000000000000000000000000000000000000000000000000000815260040161028a90611fd1565b60405180910390fd5b6000600360009054906101000a900473ffffffffffffffffffffffffffffffffffffffff16905081600360006101000a81548173ffffffffffffffffffffffffffffffffffffffff021916908373ffffffffffffffffffffffffffffffffffffffff1602179055507f64dfe7a4cee42c12cb07c0b663064068e4a5f16c9d0dfc4d7c6fca688a301f0533828460405161032e93929190612000565b60405180910390a15050565b610342611c1b565b6000600160008573ffffffffffffffffffffffffffffffffffffffff1673ffffffffffffffffffffffffffffffffffffffff1681526020019081526020016000206000848152602001908152602001600020604051806040016040529081600082015481526020016001820160009054906101000a900473ffffffffffffffffffffffffffffffffffffffff1673ffffffffffffffffffffffffffffffffffffffff1673ffffffffffffffffffffffffffffffffffffffff16815250509050600084905060008173ffffffffffffffffffffffffffffffffffffffff16636352211e866040518263ffffffff1660e01b81526004016104419190612046565b602060405180830381865afa15801561045e573d6000803e3d6000fd5b505050506040513d601f19601f820116820180604052508101906104829190612076565b90506000600190508273ffffffffffffffffffffffffffffffffffffffff1663e985e9c58560200151306040518363ffffffff1660e01b81526004016104c99291906120a3565b602060405180830381865afa1580156104e6573d6000803e3d6000fd5b505050506040513d601f19601f8201168201806040525081019061050a91906120e1565b61051357600090505b836020015173ffffffffffffffffffffffffffffffffffffffff168273ffffffffffffffffffffffffffffffffffffffff161461054f57600090505b604051806060016040528085600001518152602001856020015173ffffffffffffffffffffffffffffffffffffffff16815260200182151581525094505050505092915050565b600360149054906101000a900460ff166105e5576040517f08c379a00000000000000000000000000000000000000000000000000000000081526004016105dc9061215a565b60405180910390fd5b838284600083905060008173ffffffffffffffffffffffffffffffffffffffff16636352211e856040518263ffffffff1660e01b81526004016106289190612046565b602060405180830381865afa158015610645573d6000803e3d6000fd5b505050506040513d601f19601f820116820180604052508101906106699190612076565b90508073ffffffffffffffffffffffffffffffffffffffff168373ffffffffffffffffffffffffffffffffffffffff16146106d0576040517f30cd747100000000000000000000000000000000000000000000000000000000815260040160405180910390fd5b73849650706cf7d654d82ac44de880c0ff07ea98a373ffffffffffffffffffffffffffffffffffffffff163373ffffffffffffffffffffffffffffffffffffffff1614610786578773ffffffffffffffffffffffffffffffffffffffff163373ffffffffffffffffffffffffffffffffffffffff1614610785576040517f08c379a000000000000000000000000000000000000000000000000000000000815260040161077c906121c6565b60405180910390fd5b5b600086036107c0576040517fe1abbfc500000000000000000000000000000000000000000000000000000000815260040160405180910390fd5b60008990508073ffffffffffffffffffffffffffffffffffffffff1663e985e9c58a306040518363ffffffff1660e01b81526004016108009291906120a3565b602060405180830381865afa15801561081d573d6000803e3d6000fd5b505050506040513d601f19601f8201168201806040525081019061084191906120e1565b610880576040517f08c379a000000000000000000000000000000000000000000000000000000000815260040161087790612232565b60405180910390fd5b60405180604001604052808881526020018a73ffffffffffffffffffffffffffffffffffffffff16815250600160008c73ffffffffffffffffffffffffffffffffffffffff1673ffffffffffffffffffffffffffffffffffffffff16815260200190815260200160002060008a81526020019081526020016000206000820151816000015560208201518160010160006101000a81548173ffffffffffffffffffffffffffffffffffffffff021916908373ffffffffffffffffffffffffffffffffffffffff160217905550905050878a73ffffffffffffffffffffffffffffffffffffffff163373ffffffffffffffffffffffffffffffffffffffff167fd547e933094f12a9159076970143ebe73234e64480317844b0dcb36117116de48a6040516109ad9190612046565b60405180910390a450505050505050505050565b600360009054906101000a900473ffffffffffffffffffffffffffffffffffffffff1673ffffffffffffffffffffffffffffffffffffffff163373ffffffffffffffffffffffffffffffffffffffff1614610a51576040517f08c379a0000000000000000000000000000000000000000000000000000000008152600401610a4890611fd1565b60405180910390fd5b6000600260009054906101000a90046bffffffffffffffffffffffff16905081600260006101000a8154816bffffffffffffffffffffffff02191690836bffffffffffffffffffffffff1602179055507f65be2b10efbdf96df38f69acaf4b88d806567c9a743876feef2dddb36f99c1e8338284604051610ad493929190612261565b60405180910390a15050565b600360009054906101000a900473ffffffffffffffffffffffffffffffffffffffff1673ffffffffffffffffffffffffffffffffffffffff163373ffffffffffffffffffffffffffffffffffffffff1614610b70576040517f08c379a0000000000000000000000000000000000000000000000000000000008152600401610b6790611fd1565b60405180910390fd5b6000600360149054906101000a900460ff16905081600360146101000a81548160ff0219169083151502179055507f821661af37fb42bcb145020cc6280708c1f6e0fc02562f231c8ac3f5a5d8f639338284604051610bd1939291906122a7565b60405180910390a15050565b600360149054906101000a900460ff16610c2c576040517f08c379a0000000000000000000000000000000000000000000000000000000008152600401610c239061215a565b60405180910390fd5b81816000600160008473ffffffffffffffffffffffffffffffffffffffff1673ffffffffffffffffffffffffffffffffffffffff1681526020019081526020016000206000838152602001908152602001600020604051806040016040529081600082015481526020016001820160009054906101000a900473ffffffffffffffffffffffffffffffffffffffff1673ffffffffffffffffffffffffffffffffffffffff1673ffffffffffffffffffffffffffffffffffffffff168152505090506000816000015111610d385782826040517f6831488c000000000000000000000000000000000000000000000000000000008152600401610d2f9291906122de565b60405180910390fd5b848433600083905060008173ffffffffffffffffffffffffffffffffffffffff16636352211e856040518263ffffffff1660e01b8152600401610d7b9190612046565b602060405180830381865afa158015610d98573d6000803e3d6000fd5b505050506040513d601f19601f82011682018060405250810190610dbc9190612076565b90508073ffffffffffffffffffffffffffffffffffffffff168373ffffffffffffffffffffffffffffffffffffffff1603610e23576040517f65b023fd00000000000000000000000000000000000000000000000000000000815260040160405180910390fd5b610e2b611b56565b6000600160008c73ffffffffffffffffffffffffffffffffffffffff1673ffffffffffffffffffffffffffffffffffffffff16815260200190815260200160002060008b8152602001908152602001600020604051806040016040529081600082015481526020016001820160009054906101000a900473ffffffffffffffffffffffffffffffffffffffff1673ffffffffffffffffffffffffffffffffffffffff1673ffffffffffffffffffffffffffffffffffffffff1681525050905060008b90508073ffffffffffffffffffffffffffffffffffffffff1663e985e9c58360200151306040518363ffffffff1660e01b8152600401610f2e9291906120a3565b602060405180830381865afa158015610f4b573d6000803e3d6000fd5b505050506040513d601f19601f82011682018060405250810190610f6f91906120e1565b610fae576040517f08c379a0000000000000000000000000000000000000000000000000000000008152600401610fa590612232565b60405180910390fd5b81600001513414610ffe578b8b83600001516040517f7c934565000000000000000000000000000000000000000000000000000000008152600401610ff593929190612307565b60405180910390fd5b6000808d73ffffffffffffffffffffffffffffffffffffffff16632a55205a8e86600001516040518363ffffffff1660e01b815260040161104092919061233e565b6040805180830381865afa15801561105c573d6000803e3d6000fd5b505050506040513d601f19601f82011682018060405250810190611080919061237c565b91509150836000015181106110ca576040517f08c379a00000000000000000000000000000000000000000000000000000000081526004016110c190612408565b60405180910390fd5b60008273ffffffffffffffffffffffffffffffffffffffff16826040516110f090612459565b60006040518083038185875af1925050503d806000811461112d576040519150601f19603f3d011682016040523d82523d6000602084013e611132565b606091505b5050905080611176576040517f08c379a000000000000000000000000000000000000000000000000000000000815260040161116d906124e0565b60405180910390fd5b60006111858660000151611ba5565b90506002600c9054906101000a900473ffffffffffffffffffffffffffffffffffffffff1673ffffffffffffffffffffffffffffffffffffffff16816040516111cd90612459565b60006040518083038185875af1925050503d806000811461120a576040519150601f19603f3d011682016040523d82523d6000602084013e61120f565b606091505b50508092505081611255576040517f08c379a000000000000000000000000000000000000000000000000000000000815260040161124c9061254c565b60405180910390fd5b600081848860000151611268919061259b565b611272919061259b565b9050866020015173ffffffffffffffffffffffffffffffffffffffff168160405161129c90612459565b60006040518083038185875af1925050503d80600081146112d9576040519150601f19603f3d011682016040523d82523d6000602084013e6112de565b606091505b50508093505082611324576040517f08c379a000000000000000000000000000000000000000000000000000000000815260040161131b9061261b565b60405180910390fd5b5050505050600160008d73ffffffffffffffffffffffffffffffffffffffff1673ffffffffffffffffffffffffffffffffffffffff16815260200190815260200160002060008c81526020019081526020016000206000808201600090556001820160006101000a81549073ffffffffffffffffffffffffffffffffffffffff021916905550508073ffffffffffffffffffffffffffffffffffffffff166342842e0e8360200151338e6040518463ffffffff1660e01b81526004016113ec9392919061263b565b600060405180830381600087803b15801561140657600080fd5b505af115801561141a573d6000803e3d6000fd5b505050508a8c73ffffffffffffffffffffffffffffffffffffffff163373ffffffffffffffffffffffffffffffffffffffff167fe9c622981335737fc4980ad7fa82f2007d350d10c84d88f14dc9d217be270277856020015186600001516040516114869291906122de565b60405180910390a45050611498611c07565b50505050505050505050565b600360149054906101000a900460ff166114f3576040517f08c379a00000000000000000000000000000000000000000000000000000000081526004016114ea9061215a565b60405180910390fd5b818133600083905060008173ffffffffffffffffffffffffffffffffffffffff16636352211e856040518263ffffffff1660e01b81526004016115369190612046565b602060405180830381865afa158015611553573d6000803e3d6000fd5b505050506040513d601f19601f820116820180604052508101906115779190612076565b90508073ffffffffffffffffffffffffffffffffffffffff168373ffffffffffffffffffffffffffffffffffffffff16146115de576040517f30cd747100000000000000000000000000000000000000000000000000000000815260040160405180910390fd5b600160008873ffffffffffffffffffffffffffffffffffffffff1673ffffffffffffffffffffffffffffffffffffffff16815260200190815260200160002060008781526020019081526020016000206000808201600090556001820160006101000a81549073ffffffffffffffffffffffffffffffffffffffff02191690555050858773ffffffffffffffffffffffffffffffffffffffff163373ffffffffffffffffffffffffffffffffffffffff167f9ba1a3cb55ce8d63d072a886f94d2a744f50cddf82128e897d0661f5ec62315860405160405180910390a450505050505050565b600360009054906101000a900473ffffffffffffffffffffffffffffffffffffffff1673ffffffffffffffffffffffffffffffffffffffff163373ffffffffffffffffffffffffffffffffffffffff1614611754576040517f08c379a000000000000000000000000000000000000000000000000000000000815260040161174b90611fd1565b60405180910390fd5b60006002600c9054906101000a900473ffffffffffffffffffffffffffffffffffffffff169050816002600c6101000a81548173ffffffffffffffffffffffffffffffffffffffff021916908373ffffffffffffffffffffffffffffffffffffffff1602179055507ffe7cacaa9c56bc7ca931983c5de9e83e55f400ed7dd06311b6d23329187e22c73382846040516117ef93929190612000565b60405180910390a15050565b600360149054906101000a900460ff1661184a576040517f08c379a00000000000000000000000000000000000000000000000000000000081526004016118419061215a565b60405180910390fd5b82826000600160008473ffffffffffffffffffffffffffffffffffffffff1673ffffffffffffffffffffffffffffffffffffffff1681526020019081526020016000206000838152602001908152602001600020604051806040016040529081600082015481526020016001820160009054906101000a900473ffffffffffffffffffffffffffffffffffffffff1673ffffffffffffffffffffffffffffffffffffffff1673ffffffffffffffffffffffffffffffffffffffff1681525050905060008160000151116119565782826040517f6831488c00000000000000000000000000000000000000000000000000000000815260040161194d9291906122de565b60405180910390fd5b61195e611b56565b858533600083905060008173ffffffffffffffffffffffffffffffffffffffff16636352211e856040518263ffffffff1660e01b81526004016119a19190612046565b602060405180830381865afa1580156119be573d6000803e3d6000fd5b505050506040513d601f19601f820116820180604052508101906119e29190612076565b90508073ffffffffffffffffffffffffffffffffffffffff168373ffffffffffffffffffffffffffffffffffffffff1614611a49576040517f30cd747100000000000000000000000000000000000000000000000000000000815260040160405180910390fd5b60008903611a83576040517fe1abbfc500000000000000000000000000000000000000000000000000000000815260040160405180910390fd5b88600160008d73ffffffffffffffffffffffffffffffffffffffff1673ffffffffffffffffffffffffffffffffffffffff16815260200190815260200160002060008c815260200190815260200160002060000181905550898b73ffffffffffffffffffffffffffffffffffffffff163373ffffffffffffffffffffffffffffffffffffffff167fd547e933094f12a9159076970143ebe73234e64480317844b0dcb36117116de48c604051611b399190612046565b60405180910390a45050505050611b4e611c07565b505050505050565b600260005403611b9b576040517f08c379a0000000000000000000000000000000000000000000000000000000008152600401611b92906126be565b60405180910390fd5b6002600081905550565b600080611bb0611c11565b6bffffffffffffffffffffffff16600260009054906101000a90046bffffffffffffffffffffffff166bffffffffffffffffffffffff1684611bf291906126de565b611bfc919061274f565b905080915050919050565b6001600081905550565b6000612710905090565b604051806060016040528060008152602001600073ffffffffffffffffffffffffffffffffffffffff1681526020016000151581525090565b600080fd5b600073ffffffffffffffffffffffffffffffffffffffff82169050919050565b6000611c8482611c59565b9050919050565b611c9481611c79565b8114611c9f57600080fd5b50565b600081359050611cb181611c8b565b92915050565b600060208284031215611ccd57611ccc611c54565b5b6000611cdb84828501611ca2565b91505092915050565b6000819050919050565b611cf781611ce4565b8114611d0257600080fd5b50565b600081359050611d1481611cee565b92915050565b60008060408385031215611d3157611d30611c54565b5b6000611d3f85828601611ca2565b9250506020611d5085828601611d05565b9150509250929050565b611d6381611ce4565b82525050565b611d7281611c79565b82525050565b60008115159050919050565b611d8d81611d78565b82525050565b606082016000820151611da96000850182611d5a565b506020820151611dbc6020850182611d69565b506040820151611dcf6040850182611d84565b50505050565b6000606082019050611dea6000830184611d93565b92915050565b60008060008060808587031215611e0a57611e09611c54565b5b6000611e1887828801611ca2565b9450506020611e2987828801611ca2565b9350506040611e3a87828801611d05565b9250506060611e4b87828801611d05565b91505092959194509250565b60006bffffffffffffffffffffffff82169050919050565b611e7881611e57565b8114611e8357600080fd5b50565b600081359050611e9581611e6f565b92915050565b600060208284031215611eb157611eb0611c54565b5b6000611ebf84828501611e86565b91505092915050565b611ed181611d78565b8114611edc57600080fd5b50565b600081359050611eee81611ec8565b92915050565b600060208284031215611f0a57611f09611c54565b5b6000611f1884828501611edf565b91505092915050565b600080600060608486031215611f3a57611f39611c54565b5b6000611f4886828701611ca2565b9350506020611f5986828701611d05565b9250506040611f6a86828701611d05565b9150509250925092565b600082825260208201905092915050565b7f4e6f742041646d696e0000000000000000000000000000000000000000000000600082015250565b6000611fbb600983611f74565b9150611fc682611f85565b602082019050919050565b60006020820190508181036000830152611fea81611fae565b9050919050565b611ffa81611c79565b82525050565b60006060820190506120156000830186611ff1565b6120226020830185611ff1565b61202f6040830184611ff1565b949350505050565b61204081611ce4565b82525050565b600060208201905061205b6000830184612037565b92915050565b60008151905061207081611c8b565b92915050565b60006020828403121561208c5761208b611c54565b5b600061209a84828501612061565b91505092915050565b60006040820190506120b86000830185611ff1565b6120c56020830184611ff1565b9392505050565b6000815190506120db81611ec8565b92915050565b6000602082840312156120f7576120f6611c54565b5b6000612105848285016120cc565b91505092915050565b7f4d61726b6574204e6f74204f70656e0000000000000000000000000000000000600082015250565b6000612144600f83611f74565b915061214f8261210e565b602082019050919050565b6000602082019050818103600083015261217381612137565b9050919050565b7f4e6f7420546f6b656e204f776e65720000000000000000000000000000000000600082015250565b60006121b0600f83611f74565b91506121bb8261217a565b602082019050919050565b600060208201905081810360008301526121df816121a3565b9050919050565b7f4e6f7420417070726f7665640000000000000000000000000000000000000000600082015250565b600061221c600c83611f74565b9150612227826121e6565b602082019050919050565b6000602082019050818103600083015261224b8161220f565b9050919050565b61225b81611e57565b82525050565b60006060820190506122766000830186611ff1565b6122836020830185612252565b6122906040830184612252565b949350505050565b6122a181611d78565b82525050565b60006060820190506122bc6000830186611ff1565b6122c96020830185612298565b6122d66040830184612298565b949350505050565b60006040820190506122f36000830185611ff1565b6123006020830184612037565b9392505050565b600060608201905061231c6000830186611ff1565b6123296020830185612037565b6123366040830184612037565b949350505050565b60006040820190506123536000830185612037565b6123606020830184612037565b9392505050565b60008151905061237681611cee565b92915050565b6000806040838503121561239357612392611c54565b5b60006123a185828601612061565b92505060206123b285828601612367565b9150509250929050565b7f726f79616c7479206e6f742076616c6964000000000000000000000000000000600082015250565b60006123f2601183611f74565b91506123fd826123bc565b602082019050919050565b60006020820190508181036000830152612421816123e5565b9050919050565b600081905092915050565b50565b6000612443600083612428565b915061244e82612433565b600082019050919050565b600061246482612436565b9150819050919050565b7f4661696c656420746f2073656e6420424e4220746f20726f79616c747920706160008201527f7965650000000000000000000000000000000000000000000000000000000000602082015250565b60006124ca602383611f74565b91506124d58261246e565b604082019050919050565b600060208201905081810360008301526124f9816124bd565b9050919050565b7f4661696c656420746f2073656e6420424e4220746f206d61726b657420466565600082015250565b6000612536602083611f74565b915061254182612500565b602082019050919050565b6000602082019050818103600083015261256581612529565b9050919050565b7f4e487b7100000000000000000000000000000000000000000000000000000000600052601160045260246000fd5b60006125a682611ce4565b91506125b183611ce4565b92508282039050818111156125c9576125c861256c565b5b92915050565b7f4661696c656420746f2073656e6420424e4220746f2073656c6c657200000000600082015250565b6000612605601c83611f74565b9150612610826125cf565b602082019050919050565b60006020820190508181036000830152612634816125f8565b9050919050565b60006060820190506126506000830186611ff1565b61265d6020830185611ff1565b61266a6040830184612037565b949350505050565b7f5265656e7472616e637947756172643a207265656e7472616e742063616c6c00600082015250565b60006126a8601f83611f74565b91506126b382612672565b602082019050919050565b600060208201905081810360008301526126d78161269b565b9050919050565b60006126e982611ce4565b91506126f483611ce4565b925082820261270281611ce4565b915082820484148315176127195761271861256c565b5b5092915050565b7f4e487b7100000000000000000000000000000000000000000000000000000000600052601260045260246000fd5b600061275a82611ce4565b915061276583611ce4565b92508261277557612774612720565b5b82820490509291505056fea2646970667358221220257186fc4edeec69eaca18f2eaa35fe955ff20d8f8a972eb6a64f1fc821b430f64736f6c63430008130033",
  "immutableReferences": {},
  "source": "// SPDX-License-Identifier: MIT\npragma solidity =0.8.19;\n\nimport \"@openzeppelin/contracts/security/ReentrancyGuard.sol\";\nimport \"@openzeppelin/contracts/utils/Counters.sol\";\nimport \"@openzeppelin/contracts/token/ERC721/IERC721.sol\";\nimport \"@openzeppelin/contracts/token/common/ERC2981.sol\";\nimport \"./interface/IMarketplace.sol\";\n\nerror PriceNotMet(address nftAddress, uint256 tokenId, uint256 price);\nerror NotListed(address nftAddress, uint256 tokenId);\nerror AlreadyListed(address nftAddress, uint256 tokenId);\nerror NotOwner();\nerror PriceMustBeAboveZero();\n\n// Error thrown for isNotOwner modifier\nerror IsNotOwner();\n\ncontract NftMarketplace is IMarketplace, ReentrancyGuard {\n\n    struct ListingInfo{\n        uint256 price;\n        address seller;\n        bool available;\n    }\n\n    struct Listing {\n        uint256 price;\n        address seller;\n    }\n\n    event ItemListed(\n        address indexed seller,\n        address indexed nftAddress,\n        uint256 indexed tokenId,\n        uint256 price\n    );\n\n    event ItemCanceled(\n        address indexed seller,\n        address indexed nftAddress,\n        uint256 indexed tokenId\n    );\n\n    event ItemBought(\n        address indexed buyer,\n        address seller,\n        address indexed nftAddress,\n        uint256 indexed tokenId,\n        uint256 price\n    );\n\n    event AdminModified(\n        address sender,\n        address oldAdmin,\n        address newAdmin\n    );\n\n    event MarkeStatusModified(\n        address sender,\n        bool oldStatus,\n        bool newStatus\n    );\n\n    event MarkeFeeModified(\n        address sender,\n        uint96 oldFee,\n        uint96 newFee\n    );\n\n    event BenificiaryModified(\n        address sender,\n        address oldReceiver,\n        address newReceiver\n    );\n\n    mapping(address => mapping(uint256 => Listing)) private sListings;\n\n    uint96 marketFeeNumerator;\n    address benificiary;\n    address admin;\n    bool marketStatus;\n\n    constructor(address marketFeeReceiver, uint96 marketFeeNum, address administrator) {\n        marketFeeNumerator = marketFeeNum;\n        benificiary = marketFeeReceiver;\n        admin = administrator;\n        marketStatus = true;\n    }\n\n    modifier isAdmin() {\n        require(msg.sender == admin, \"Not Admin\");\n        _;\n    }\n\n    modifier checkStatus() {\n        require(marketStatus, \"Market Not Open\");\n        _;\n    }\n\n    modifier notListed(\n        address nftAddress,\n        uint256 tokenId\n    ) {\n        Listing memory listing = sListings[nftAddress][tokenId];\n        if (listing.price > 0) {\n            revert AlreadyListed(nftAddress, tokenId);\n        }\n        _;\n    }\n\n    modifier isListed(address nftAddress, uint256 tokenId) {\n        Listing memory listing = sListings[nftAddress][tokenId];\n        if (listing.price <= 0) {\n            revert NotListed(nftAddress, tokenId);\n        }\n        _;\n    }\n\n    modifier isOwner(\n        address nftAddress,\n        uint256 tokenId,\n        address spender\n    ) {\n        IERC721 nft = IERC721(nftAddress);\n        address owner = nft.ownerOf(tokenId);\n        if (spender != owner) {\n            revert NotOwner();\n        }\n        _;\n    }\n\n    // IsNotOwner Modifier - Nft Owner can't buy his/her NFT\n    // Modifies buyItem function\n    // Owner should only list, cancel listing or update listing\n    modifier isNotOwner(\n        address nftAddress,\n        uint256 tokenId,\n        address spender\n    ) {\n        IERC721 nft = IERC721(nftAddress);\n        address owner = nft.ownerOf(tokenId);\n        if (spender == owner) {\n            revert IsNotOwner();\n        }\n        _;\n    }\n\n    function modifyAdmin(address ad) isAdmin external {\n        address oldAdmin = admin;\n        admin = ad;\n        emit AdminModified(msg.sender, oldAdmin, ad);\n    }\n\n    function modifyMarketStatus(bool status) isAdmin external {\n        bool oldStatus = marketStatus;\n        marketStatus = status;\n        emit MarkeStatusModified(msg.sender, oldStatus, status);\n    }\n\n    function modifyMarketFee(uint96 feeNum) isAdmin external {\n        uint96 oldFeeNum = marketFeeNumerator;\n        marketFeeNumerator = feeNum;\n        emit MarkeFeeModified(msg.sender, oldFeeNum, feeNum);\n    }\n\n    function modifyBeneficiary(address receiver) isAdmin external {\n        address oldReceiver = benificiary;\n        benificiary = receiver;\n        emit BenificiaryModified(msg.sender, oldReceiver, receiver);\n    }\n\n    /////////////////////\n    // Main Functions //\n    /////////////////////\n    /*\n     * @notice Method for listing NFT\n     * @param nftAddress Address of NFT contract\n     * @param tokenId Token ID of NFT\n     * @param price sale price for each item\n     */\n    function listItem(\n        address nftAddress,\n        address seller,\n        uint256 tokenId,\n        uint256 price\n    )\n        external\n        checkStatus()\n        isOwner(nftAddress, tokenId, seller)\n    {\n        if (msg.sender != 0x849650706CF7D654d82AC44de880C0Ff07Ea98A3) {\n            require(msg.sender == seller, \"Not Token Owner\");\n        }\n        if (price == 0) {\n            revert PriceMustBeAboveZero();\n        }\n        IERC721 nft = IERC721(nftAddress);\n\n        require(nft.isApprovedForAll(seller, address(this)), \"Not Approved\");\n\n        sListings[nftAddress][tokenId] = Listing(price, seller);\n        emit ItemListed(msg.sender, nftAddress, tokenId, price);\n    }\n\n    /*\n     * @notice Method for cancelling listing\n     * @param nftAddress Address of NFT contract\n     * @param tokenId Token ID of NFT\n     */\n    function cancelListing(address nftAddress, uint256 tokenId)\n        external\n        checkStatus()\n        isOwner(nftAddress, tokenId, msg.sender)\n    {\n        delete (sListings[nftAddress][tokenId]);\n        emit ItemCanceled(msg.sender, nftAddress, tokenId);\n    }\n\n    function buyItem(address nftAddress, uint256 tokenId)\n        external\n        payable\n        checkStatus()\n        isListed(nftAddress, tokenId)\n        isNotOwner(nftAddress, tokenId, msg.sender)\n        nonReentrant\n    {\n        Listing memory listedItem = sListings[nftAddress][tokenId];\n        IERC721 nft = IERC721(nftAddress);\n        require(nft.isApprovedForAll(listedItem.seller, address(this)), \"Not Approved\");\n        if (msg.value != listedItem.price) {\n            revert PriceNotMet(nftAddress, tokenId, listedItem.price);\n        }\n\n        {\n            // royalty fee\n            (address royalty_payee, uint256 royalty_fee)  = IERC2981(nftAddress).royaltyInfo(tokenId, listedItem.price);\n            require(royalty_fee < listedItem.price, \"royalty not valid\");\n            (bool sent, ) = payable(royalty_payee).call{value: royalty_fee}(\"\");\n            require(sent, \"Failed to send BNB to royalty payee\");\n\n            // market fee\n            uint256 marketFee = getMarketFee(listedItem.price);\n            (sent, ) = payable(benificiary).call{value: marketFee}(\"\");\n            require(sent, \"Failed to send BNB to market Fee\");\n\n            // seller recieve\n            uint256 remaining = listedItem.price - royalty_fee - marketFee;\n            (sent, ) = payable(listedItem.seller).call{value: remaining}(\"\");\n            require(sent, \"Failed to send BNB to seller\");\n        }\n\n        delete (sListings[nftAddress][tokenId]);\n\n        nft.safeTransferFrom(listedItem.seller, msg.sender, tokenId);\n        emit ItemBought(msg.sender, listedItem.seller, nftAddress, tokenId, listedItem.price);\n    }\n\n    /*\n     * @notice Method for updating listing\n     * @param nftAddress Address of NFT contract\n     * @param tokenId Token ID of NFT\n     * @param newPrice Price in Wei of the item\n     */\n    function updateListing(\n        address nftAddress,\n        uint256 tokenId,\n        uint256 newPrice\n    )\n        external\n        checkStatus()\n        isListed(nftAddress, tokenId)\n        nonReentrant\n        isOwner(nftAddress, tokenId, msg.sender)\n    {\n        //We should check the value of `newPrice` and revert if it's below zero (like we also check in `listItem()`)\n        if (newPrice == 0) {\n            revert PriceMustBeAboveZero();\n        }\n        sListings[nftAddress][tokenId].price = newPrice;\n        emit ItemListed(msg.sender, nftAddress, tokenId, newPrice);\n    }\n\n    function getMarketFee(uint256 price) view internal returns (uint256) {\n        uint256 marketFeeAmount = (price * marketFeeNumerator) / _feeDenominator();\n        return marketFeeAmount;\n    }\n\n    function _feeDenominator() internal pure virtual returns (uint96) {\n        return 10000;\n    }\n\n    function getListingByNFT(address nftAddress, uint256 tokenId)\n        external\n        view\n        returns (ListingInfo memory)\n    {\n        Listing memory tmp = sListings[nftAddress][tokenId];\n        IERC721 nft = IERC721(nftAddress);\n        address owner = nft.ownerOf(tokenId);\n        bool available = true;\n        if(!nft.isApprovedForAll(tmp.seller, address(this))) {\n            available = false;\n        }\n        if (owner != tmp.seller) {\n            available = false;\n        }\n        return ListingInfo(tmp.price, tmp.seller, available);\n\n    }\n\n}",
  "sourcePath": "/Users/liuxi/Desktop/aigc/nft-marketplace/contracts/Marketplace.sol",
  "compiler": {
    "name": "solc",
    "version": "0.8.19+commit.7dd6d404.Emscripten.clang"
  },
  "schemaVersion": "3.4.13",
  "updatedAt": "2023-06-12T14:44:00.160Z",
  "devdoc": {
    "kind": "dev",
    "methods": {},
    "version": 1
  },
  "userdoc": {
    "kind": "user",
    "methods": {},
    "version": 1
  }
}