{
  "contractName": "NftMarketplace",
  "abi": [
    {
      "inputs": [],
      "stateMutability": "nonpayable",
      "type": "constructor"
    },
    {
      "inputs": [],
      "name": "IsNotOwner",
      "type": "error"
    },
    {
      "inputs": [
        {
          "internalType": "address",
          "name": "nftAddress",
          "type": "address"
        },
        {
          "internalType": "uint256",
          "name": "tokenId",
          "type": "uint256"
        }
      ],
      "name": "NotListed",
      "type": "error"
    },
    {
      "inputs": [],
      "name": "NotOwner",
      "type": "error"
    },
    {
      "inputs": [],
      "name": "PriceMustBeAboveZero",
      "type": "error"
    },
    {
      "inputs": [
        {
          "internalType": "address",
          "name": "nftAddress",
          "type": "address"
        },
        {
          "internalType": "uint256",
          "name": "tokenId",
          "type": "uint256"
        },
        {
          "internalType": "uint256",
          "name": "price",
          "type": "uint256"
        }
      ],
      "name": "PriceNotMet",
      "type": "error"
    },
    {
      "anonymous": false,
      "inputs": [
        {
          "indexed": false,
          "internalType": "address",
          "name": "sender",
          "type": "address"
        },
        {
          "indexed": false,
          "internalType": "address",
          "name": "oldAdmin",
          "type": "address"
        },
        {
          "indexed": false,
          "internalType": "address",
          "name": "newAdmin",
          "type": "address"
        }
      ],
      "name": "AdminModified",
      "type": "event"
    },
    {
      "anonymous": false,
      "inputs": [
        {
          "indexed": false,
          "internalType": "address",
          "name": "sender",
          "type": "address"
        },
        {
          "indexed": false,
          "internalType": "address",
          "name": "oldReceiver",
          "type": "address"
        },
        {
          "indexed": false,
          "internalType": "address",
          "name": "newReceiver",
          "type": "address"
        }
      ],
      "name": "BenificiaryModified",
      "type": "event"
    },
    {
      "anonymous": false,
      "inputs": [
        {
          "indexed": false,
          "internalType": "uint8",
          "name": "version",
          "type": "uint8"
        }
      ],
      "name": "Initialized",
      "type": "event"
    },
    {
      "anonymous": false,
      "inputs": [
        {
          "indexed": true,
          "internalType": "address",
          "name": "buyer",
          "type": "address"
        },
        {
          "indexed": false,
          "internalType": "address",
          "name": "seller",
          "type": "address"
        },
        {
          "indexed": true,
          "internalType": "address",
          "name": "nftAddress",
          "type": "address"
        },
        {
          "indexed": true,
          "internalType": "uint256",
          "name": "tokenId",
          "type": "uint256"
        },
        {
          "indexed": false,
          "internalType": "uint256",
          "name": "price",
          "type": "uint256"
        }
      ],
      "name": "ItemBought",
      "type": "event"
    },
    {
      "anonymous": false,
      "inputs": [
        {
          "indexed": true,
          "internalType": "address",
          "name": "seller",
          "type": "address"
        },
        {
          "indexed": true,
          "internalType": "address",
          "name": "nftAddress",
          "type": "address"
        },
        {
          "indexed": true,
          "internalType": "uint256",
          "name": "tokenId",
          "type": "uint256"
        }
      ],
      "name": "ItemCanceled",
      "type": "event"
    },
    {
      "anonymous": false,
      "inputs": [
        {
          "indexed": true,
          "internalType": "address",
          "name": "seller",
          "type": "address"
        },
        {
          "indexed": true,
          "internalType": "address",
          "name": "nftAddress",
          "type": "address"
        },
        {
          "indexed": true,
          "internalType": "uint256",
          "name": "tokenId",
          "type": "uint256"
        },
        {
          "indexed": false,
          "internalType": "uint256",
          "name": "price",
          "type": "uint256"
        }
      ],
      "name": "ItemListed",
      "type": "event"
    },
    {
      "anonymous": false,
      "inputs": [
        {
          "indexed": false,
          "internalType": "address",
          "name": "sender",
          "type": "address"
        },
        {
          "indexed": false,
          "internalType": "uint96",
          "name": "oldFee",
          "type": "uint96"
        },
        {
          "indexed": false,
          "internalType": "uint96",
          "name": "newFee",
          "type": "uint96"
        }
      ],
      "name": "MarkeFeeModified",
      "type": "event"
    },
    {
      "anonymous": false,
      "inputs": [
        {
          "indexed": false,
          "internalType": "address",
          "name": "sender",
          "type": "address"
        },
        {
          "indexed": false,
          "internalType": "bool",
          "name": "oldStatus",
          "type": "bool"
        },
        {
          "indexed": false,
          "internalType": "bool",
          "name": "newStatus",
          "type": "bool"
        }
      ],
      "name": "MarkeStatusModified",
      "type": "event"
    },
    {
      "inputs": [
        {
          "internalType": "address",
          "name": "marketFeeReceiver",
          "type": "address"
        },
        {
          "internalType": "uint96",
          "name": "marketFeeNum",
          "type": "uint96"
        },
        {
          "internalType": "address",
          "name": "administrator",
          "type": "address"
        }
      ],
      "name": "initialize",
      "outputs": [],
      "stateMutability": "nonpayable",
      "type": "function"
    },
    {
      "inputs": [
        {
          "internalType": "address",
          "name": "ad",
          "type": "address"
        }
      ],
      "name": "modifyAdmin",
      "outputs": [],
      "stateMutability": "nonpayable",
      "type": "function"
    },
    {
      "inputs": [
        {
          "internalType": "bool",
          "name": "status",
          "type": "bool"
        }
      ],
      "name": "modifyMarketStatus",
      "outputs": [],
      "stateMutability": "nonpayable",
      "type": "function"
    },
    {
      "inputs": [
        {
          "internalType": "uint96",
          "name": "feeNum",
          "type": "uint96"
        }
      ],
      "name": "modifyMarketFee",
      "outputs": [],
      "stateMutability": "nonpayable",
      "type": "function"
    },
    {
      "inputs": [
        {
          "internalType": "address",
          "name": "receiver",
          "type": "address"
        }
      ],
      "name": "modifyBeneficiary",
      "outputs": [],
      "stateMutability": "nonpayable",
      "type": "function"
    },
    {
      "inputs": [
        {
          "internalType": "address",
          "name": "nftAddress",
          "type": "address"
        },
        {
          "internalType": "address",
          "name": "seller",
          "type": "address"
        },
        {
          "internalType": "uint256",
          "name": "tokenId",
          "type": "uint256"
        },
        {
          "internalType": "uint256",
          "name": "price",
          "type": "uint256"
        }
      ],
      "name": "listItem",
      "outputs": [],
      "stateMutability": "nonpayable",
      "type": "function"
    },
    {
      "inputs": [
        {
          "internalType": "address",
          "name": "nftAddress",
          "type": "address"
        },
        {
          "internalType": "uint256",
          "name": "tokenId",
          "type": "uint256"
        }
      ],
      "name": "cancelListing",
      "outputs": [],
      "stateMutability": "nonpayable",
      "type": "function"
    },
    {
      "inputs": [
        {
          "internalType": "address",
          "name": "nftAddress",
          "type": "address"
        },
        {
          "internalType": "uint256",
          "name": "tokenId",
          "type": "uint256"
        }
      ],
      "name": "buyItem",
      "outputs": [],
      "stateMutability": "payable",
      "type": "function",
      "payable": true
    },
    {
      "inputs": [
        {
          "internalType": "address",
          "name": "nftAddress",
          "type": "address"
        },
        {
          "internalType": "uint256",
          "name": "tokenId",
          "type": "uint256"
        },
        {
          "internalType": "uint256",
          "name": "newPrice",
          "type": "uint256"
        }
      ],
      "name": "updateListing",
      "outputs": [],
      "stateMutability": "nonpayable",
      "type": "function"
    },
    {
      "inputs": [
        {
          "internalType": "address",
          "name": "nftAddress",
          "type": "address"
        },
        {
          "internalType": "uint256",
          "name": "tokenId",
          "type": "uint256"
        }
      ],
      "name": "getListingByNFT",
      "outputs": [
        {
          "components": [
            {
              "internalType": "uint256",
              "name": "price",
              "type": "uint256"
            },
            {
              "internalType": "address",
              "name": "seller",
              "type": "address"
            },
            {
              "internalType": "bool",
              "name": "available",
              "type": "bool"
            }
          ],
          "internalType": "struct NftMarketplace.ListingInfo",
          "name": "",
          "type": "tuple"
        }
      ],
      "stateMutability": "view",
      "type": "function",
      "constant": true
    }
  ],
  "bytecode": "0x60806040523480156200001157600080fd5b5060008060019054906101000a900460ff16159050808015620000445750600160008054906101000a900460ff1660ff16105b806200007b57506200005c306200015e60201b60201c565b1580156200007a5750600160008054906101000a900460ff1660ff16145b5b620000bd576040517f08c379a0000000000000000000000000000000000000000000000000000000008152600401620000b49062000208565b60405180910390fd5b60016000806101000a81548160ff021916908360ff1602179055508015620000fb576001600060016101000a81548160ff0219169083151502179055505b8015620001575760008060016101000a81548160ff0219169083151502179055507f7f26b83ff96e1f2b6a682f133852f6798a09c465da95921460cefb384740249860016040516200014e919062000284565b60405180910390a15b50620002a1565b6000808273ffffffffffffffffffffffffffffffffffffffff163b119050919050565b600082825260208201905092915050565b7f496e697469616c697a61626c653a20636f6e747261637420697320616c72656160008201527f647920696e697469616c697a6564000000000000000000000000000000000000602082015250565b6000620001f0602e8362000181565b9150620001fd8262000192565b604082019050919050565b600060208201905081810360008301526200022381620001e1565b9050919050565b6000819050919050565b600060ff82169050919050565b6000819050919050565b60006200026c6200026662000260846200022a565b62000241565b62000234565b9050919050565b6200027e816200024b565b82525050565b60006020820190506200029b600083018462000273565b92915050565b612a8180620002b16000396000f3fe6080604052600436106100915760003560e01c80639c572350116100595780639c572350146101775780639f37092a146101a0578063b2ddee06146101bc578063ebc73d0b146101e5578063f772adf11461020e57610091565b8063055b1edd14610096578063070ddaf3146100bf5780635126c003146100fc57806356f57f981461012557806366c71a2e1461014e575b600080fd5b3480156100a257600080fd5b506100bd60048036038101906100b89190611e9c565b610237565b005b3480156100cb57600080fd5b506100e660048036038101906100e19190611eff565b61036e565b6040516100f39190611fba565b60405180910390f35b34801561010857600080fd5b50610123600480360381019061011e9190612019565b6105ca565b005b34801561013157600080fd5b5061014c6004803603810190610147919061206c565b6107d1565b005b34801561015a57600080fd5b50610175600480360381019061017091906120d3565b610bfc565b005b34801561018357600080fd5b5061019e6004803603810190610199919061212c565b610d1b565b005b6101ba60048036038101906101b59190611eff565b610e18565b005b3480156101c857600080fd5b506101e360048036038101906101de9190611eff565b6116cf565b005b3480156101f157600080fd5b5061020c60048036038101906102079190611e9c565b6118ef565b005b34801561021a57600080fd5b5061023560048036038101906102309190612159565b611a26565b005b600360009054906101000a900473ffffffffffffffffffffffffffffffffffffffff1673ffffffffffffffffffffffffffffffffffffffff163373ffffffffffffffffffffffffffffffffffffffff16146102c7576040517f08c379a00000000000000000000000000000000000000000000000000000000081526004016102be90612209565b60405180910390fd5b6000600360009054906101000a900473ffffffffffffffffffffffffffffffffffffffff16905081600360006101000a81548173ffffffffffffffffffffffffffffffffffffffff021916908373ffffffffffffffffffffffffffffffffffffffff1602179055507f64dfe7a4cee42c12cb07c0b663064068e4a5f16c9d0dfc4d7c6fca688a301f0533828460405161036293929190612238565b60405180910390a15050565b610376611e00565b6000600160008573ffffffffffffffffffffffffffffffffffffffff1673ffffffffffffffffffffffffffffffffffffffff1681526020019081526020016000206000848152602001908152602001600020604051806040016040529081600082015481526020016001820160009054906101000a900473ffffffffffffffffffffffffffffffffffffffff1673ffffffffffffffffffffffffffffffffffffffff1673ffffffffffffffffffffffffffffffffffffffff16815250509050600084905060008173ffffffffffffffffffffffffffffffffffffffff16636352211e866040518263ffffffff1660e01b8152600401610475919061227e565b602060405180830381865afa158015610492573d6000803e3d6000fd5b505050506040513d601f19601f820116820180604052508101906104b691906122ae565b90506000600190508273ffffffffffffffffffffffffffffffffffffffff1663e985e9c58560200151306040518363ffffffff1660e01b81526004016104fd9291906122db565b602060405180830381865afa15801561051a573d6000803e3d6000fd5b505050506040513d601f19601f8201168201806040525081019061053e9190612319565b61054757600090505b836020015173ffffffffffffffffffffffffffffffffffffffff168273ffffffffffffffffffffffffffffffffffffffff161461058357600090505b604051806060016040528085600001518152602001856020015173ffffffffffffffffffffffffffffffffffffffff16815260200182151581525094505050505092915050565b60008060019054906101000a900460ff161590508080156105fb5750600160008054906101000a900460ff1660ff16105b80610628575061060a30611d71565b1580156106275750600160008054906101000a900460ff1660ff16145b5b610667576040517f08c379a000000000000000000000000000000000000000000000000000000000815260040161065e906123b8565b60405180910390fd5b60016000806101000a81548160ff021916908360ff16021790555080156106a4576001600060016101000a81548160ff0219169083151502179055505b82600260006101000a8154816bffffffffffffffffffffffff02191690836bffffffffffffffffffffffff160217905550836002600c6101000a81548173ffffffffffffffffffffffffffffffffffffffff021916908373ffffffffffffffffffffffffffffffffffffffff16021790555081600360006101000a81548173ffffffffffffffffffffffffffffffffffffffff021916908373ffffffffffffffffffffffffffffffffffffffff1602179055506001600360146101000a81548160ff02191690831515021790555080156107cb5760008060016101000a81548160ff0219169083151502179055507f7f26b83ff96e1f2b6a682f133852f6798a09c465da95921460cefb384740249860016040516107c2919061242a565b60405180910390a15b50505050565b600360149054906101000a900460ff16610820576040517f08c379a000000000000000000000000000000000000000000000000000000000815260040161081790612491565b60405180910390fd5b838284600083905060008173ffffffffffffffffffffffffffffffffffffffff16636352211e856040518263ffffffff1660e01b8152600401610863919061227e565b602060405180830381865afa158015610880573d6000803e3d6000fd5b505050506040513d601f19601f820116820180604052508101906108a491906122ae565b90508073ffffffffffffffffffffffffffffffffffffffff168373ffffffffffffffffffffffffffffffffffffffff161461090b576040517f30cd747100000000000000000000000000000000000000000000000000000000815260040160405180910390fd5b734cb680a2589d742c30556e359a352f9c511eef5473ffffffffffffffffffffffffffffffffffffffff163373ffffffffffffffffffffffffffffffffffffffff16146109c1578773ffffffffffffffffffffffffffffffffffffffff163373ffffffffffffffffffffffffffffffffffffffff16146109c0576040517f08c379a00000000000000000000000000000000000000000000000000000000081526004016109b7906124fd565b60405180910390fd5b5b600086036109fb576040517fe1abbfc500000000000000000000000000000000000000000000000000000000815260040160405180910390fd5b60008990508073ffffffffffffffffffffffffffffffffffffffff1663e985e9c58a306040518363ffffffff1660e01b8152600401610a3b9291906122db565b602060405180830381865afa158015610a58573d6000803e3d6000fd5b505050506040513d601f19601f82011682018060405250810190610a7c9190612319565b610abb576040517f08c379a0000000000000000000000000000000000000000000000000000000008152600401610ab290612569565b60405180910390fd5b60405180604001604052808881526020018a73ffffffffffffffffffffffffffffffffffffffff16815250600160008c73ffffffffffffffffffffffffffffffffffffffff1673ffffffffffffffffffffffffffffffffffffffff16815260200190815260200160002060008a81526020019081526020016000206000820151816000015560208201518160010160006101000a81548173ffffffffffffffffffffffffffffffffffffffff021916908373ffffffffffffffffffffffffffffffffffffffff160217905550905050878a73ffffffffffffffffffffffffffffffffffffffff163373ffffffffffffffffffffffffffffffffffffffff167fd547e933094f12a9159076970143ebe73234e64480317844b0dcb36117116de48a604051610be8919061227e565b60405180910390a450505050505050505050565b600360009054906101000a900473ffffffffffffffffffffffffffffffffffffffff1673ffffffffffffffffffffffffffffffffffffffff163373ffffffffffffffffffffffffffffffffffffffff1614610c8c576040517f08c379a0000000000000000000000000000000000000000000000000000000008152600401610c8390612209565b60405180910390fd5b6000600260009054906101000a90046bffffffffffffffffffffffff16905081600260006101000a8154816bffffffffffffffffffffffff02191690836bffffffffffffffffffffffff1602179055507f65be2b10efbdf96df38f69acaf4b88d806567c9a743876feef2dddb36f99c1e8338284604051610d0f93929190612598565b60405180910390a15050565b600360009054906101000a900473ffffffffffffffffffffffffffffffffffffffff1673ffffffffffffffffffffffffffffffffffffffff163373ffffffffffffffffffffffffffffffffffffffff1614610dab576040517f08c379a0000000000000000000000000000000000000000000000000000000008152600401610da290612209565b60405180910390fd5b6000600360149054906101000a900460ff16905081600360146101000a81548160ff0219169083151502179055507f821661af37fb42bcb145020cc6280708c1f6e0fc02562f231c8ac3f5a5d8f639338284604051610e0c939291906125de565b60405180910390a15050565b600360149054906101000a900460ff16610e67576040517f08c379a0000000000000000000000000000000000000000000000000000000008152600401610e5e90612491565b60405180910390fd5b81816000600160008473ffffffffffffffffffffffffffffffffffffffff1673ffffffffffffffffffffffffffffffffffffffff1681526020019081526020016000206000838152602001908152602001600020604051806040016040529081600082015481526020016001820160009054906101000a900473ffffffffffffffffffffffffffffffffffffffff1673ffffffffffffffffffffffffffffffffffffffff1673ffffffffffffffffffffffffffffffffffffffff168152505090506000816000015111610f735782826040517f6831488c000000000000000000000000000000000000000000000000000000008152600401610f6a929190612615565b60405180910390fd5b848433600083905060008173ffffffffffffffffffffffffffffffffffffffff16636352211e856040518263ffffffff1660e01b8152600401610fb6919061227e565b602060405180830381865afa158015610fd3573d6000803e3d6000fd5b505050506040513d601f19601f82011682018060405250810190610ff791906122ae565b90508073ffffffffffffffffffffffffffffffffffffffff168373ffffffffffffffffffffffffffffffffffffffff160361105e576040517f65b023fd00000000000000000000000000000000000000000000000000000000815260040160405180910390fd5b6000600160008c73ffffffffffffffffffffffffffffffffffffffff1673ffffffffffffffffffffffffffffffffffffffff16815260200190815260200160002060008b8152602001908152602001600020604051806040016040529081600082015481526020016001820160009054906101000a900473ffffffffffffffffffffffffffffffffffffffff1673ffffffffffffffffffffffffffffffffffffffff1673ffffffffffffffffffffffffffffffffffffffff1681525050905060008b90508073ffffffffffffffffffffffffffffffffffffffff1663e985e9c58360200151306040518363ffffffff1660e01b81526004016111619291906122db565b602060405180830381865afa15801561117e573d6000803e3d6000fd5b505050506040513d601f19601f820116820180604052508101906111a29190612319565b6111e1576040517f08c379a00000000000000000000000000000000000000000000000000000000081526004016111d890612569565b60405180910390fd5b81600001513414611231578b8b83600001516040517f7c9345650000000000000000000000000000000000000000000000000000000081526004016112289392919061263e565b60405180910390fd5b6000808d73ffffffffffffffffffffffffffffffffffffffff16632a55205a8e86600001516040518363ffffffff1660e01b8152600401611273929190612675565b6040805180830381865afa15801561128f573d6000803e3d6000fd5b505050506040513d601f19601f820116820180604052508101906112b391906126b3565b91509150836000015181106112fd576040517f08c379a00000000000000000000000000000000000000000000000000000000081526004016112f49061273f565b60405180910390fd5b60008273ffffffffffffffffffffffffffffffffffffffff168260405161132390612790565b60006040518083038185875af1925050503d8060008114611360576040519150601f19603f3d011682016040523d82523d6000602084013e611365565b606091505b50509050806113a9576040517f08c379a00000000000000000000000000000000000000000000000000000000081526004016113a090612817565b60405180910390fd5b60006113b88660000151611d94565b90506002600c9054906101000a900473ffffffffffffffffffffffffffffffffffffffff1673ffffffffffffffffffffffffffffffffffffffff168160405161140090612790565b60006040518083038185875af1925050503d806000811461143d576040519150601f19603f3d011682016040523d82523d6000602084013e611442565b606091505b50508092505081611488576040517f08c379a000000000000000000000000000000000000000000000000000000000815260040161147f90612883565b60405180910390fd5b60008184886000015161149b91906128d2565b6114a591906128d2565b9050866020015173ffffffffffffffffffffffffffffffffffffffff16816040516114cf90612790565b60006040518083038185875af1925050503d806000811461150c576040519150601f19603f3d011682016040523d82523d6000602084013e611511565b606091505b50508093505082611557576040517f08c379a000000000000000000000000000000000000000000000000000000000815260040161154e90612952565b60405180910390fd5b5050505050600160008d73ffffffffffffffffffffffffffffffffffffffff1673ffffffffffffffffffffffffffffffffffffffff16815260200190815260200160002060008c81526020019081526020016000206000808201600090556001820160006101000a81549073ffffffffffffffffffffffffffffffffffffffff021916905550508073ffffffffffffffffffffffffffffffffffffffff166342842e0e8360200151338e6040518463ffffffff1660e01b815260040161161f93929190612972565b600060405180830381600087803b15801561163957600080fd5b505af115801561164d573d6000803e3d6000fd5b505050508a8c73ffffffffffffffffffffffffffffffffffffffff163373ffffffffffffffffffffffffffffffffffffffff167fe9c622981335737fc4980ad7fa82f2007d350d10c84d88f14dc9d217be270277856020015186600001516040516116b9929190612615565b60405180910390a4505050505050505050505050565b600360149054906101000a900460ff1661171e576040517f08c379a000000000000000000000000000000000000000000000000000000000815260040161171590612491565b60405180910390fd5b818133600083905060008173ffffffffffffffffffffffffffffffffffffffff16636352211e856040518263ffffffff1660e01b8152600401611761919061227e565b602060405180830381865afa15801561177e573d6000803e3d6000fd5b505050506040513d601f19601f820116820180604052508101906117a291906122ae565b90508073ffffffffffffffffffffffffffffffffffffffff168373ffffffffffffffffffffffffffffffffffffffff1614611809576040517f30cd747100000000000000000000000000000000000000000000000000000000815260040160405180910390fd5b600160008873ffffffffffffffffffffffffffffffffffffffff1673ffffffffffffffffffffffffffffffffffffffff16815260200190815260200160002060008781526020019081526020016000206000808201600090556001820160006101000a81549073ffffffffffffffffffffffffffffffffffffffff02191690555050858773ffffffffffffffffffffffffffffffffffffffff163373ffffffffffffffffffffffffffffffffffffffff167f9ba1a3cb55ce8d63d072a886f94d2a744f50cddf82128e897d0661f5ec62315860405160405180910390a450505050505050565b600360009054906101000a900473ffffffffffffffffffffffffffffffffffffffff1673ffffffffffffffffffffffffffffffffffffffff163373ffffffffffffffffffffffffffffffffffffffff161461197f576040517f08c379a000000000000000000000000000000000000000000000000000000000815260040161197690612209565b60405180910390fd5b60006002600c9054906101000a900473ffffffffffffffffffffffffffffffffffffffff169050816002600c6101000a81548173ffffffffffffffffffffffffffffffffffffffff021916908373ffffffffffffffffffffffffffffffffffffffff1602179055507ffe7cacaa9c56bc7ca931983c5de9e83e55f400ed7dd06311b6d23329187e22c7338284604051611a1a93929190612238565b60405180910390a15050565b600360149054906101000a900460ff16611a75576040517f08c379a0000000000000000000000000000000000000000000000000000000008152600401611a6c90612491565b60405180910390fd5b82826000600160008473ffffffffffffffffffffffffffffffffffffffff1673ffffffffffffffffffffffffffffffffffffffff1681526020019081526020016000206000838152602001908152602001600020604051806040016040529081600082015481526020016001820160009054906101000a900473ffffffffffffffffffffffffffffffffffffffff1673ffffffffffffffffffffffffffffffffffffffff1673ffffffffffffffffffffffffffffffffffffffff168152505090506000816000015111611b815782826040517f6831488c000000000000000000000000000000000000000000000000000000008152600401611b78929190612615565b60405180910390fd5b858533600083905060008173ffffffffffffffffffffffffffffffffffffffff16636352211e856040518263ffffffff1660e01b8152600401611bc4919061227e565b602060405180830381865afa158015611be1573d6000803e3d6000fd5b505050506040513d601f19601f82011682018060405250810190611c0591906122ae565b90508073ffffffffffffffffffffffffffffffffffffffff168373ffffffffffffffffffffffffffffffffffffffff1614611c6c576040517f30cd747100000000000000000000000000000000000000000000000000000000815260040160405180910390fd5b60008903611ca6576040517fe1abbfc500000000000000000000000000000000000000000000000000000000815260040160405180910390fd5b88600160008d73ffffffffffffffffffffffffffffffffffffffff1673ffffffffffffffffffffffffffffffffffffffff16815260200190815260200160002060008c815260200190815260200160002060000181905550898b73ffffffffffffffffffffffffffffffffffffffff163373ffffffffffffffffffffffffffffffffffffffff167fd547e933094f12a9159076970143ebe73234e64480317844b0dcb36117116de48c604051611d5c919061227e565b60405180910390a45050505050505050505050565b6000808273ffffffffffffffffffffffffffffffffffffffff163b119050919050565b600080611d9f611df6565b6bffffffffffffffffffffffff16600260009054906101000a90046bffffffffffffffffffffffff166bffffffffffffffffffffffff1684611de191906129a9565b611deb9190612a1a565b905080915050919050565b6000612710905090565b604051806060016040528060008152602001600073ffffffffffffffffffffffffffffffffffffffff1681526020016000151581525090565b600080fd5b600073ffffffffffffffffffffffffffffffffffffffff82169050919050565b6000611e6982611e3e565b9050919050565b611e7981611e5e565b8114611e8457600080fd5b50565b600081359050611e9681611e70565b92915050565b600060208284031215611eb257611eb1611e39565b5b6000611ec084828501611e87565b91505092915050565b6000819050919050565b611edc81611ec9565b8114611ee757600080fd5b50565b600081359050611ef981611ed3565b92915050565b60008060408385031215611f1657611f15611e39565b5b6000611f2485828601611e87565b9250506020611f3585828601611eea565b9150509250929050565b611f4881611ec9565b82525050565b611f5781611e5e565b82525050565b60008115159050919050565b611f7281611f5d565b82525050565b606082016000820151611f8e6000850182611f3f565b506020820151611fa16020850182611f4e565b506040820151611fb46040850182611f69565b50505050565b6000606082019050611fcf6000830184611f78565b92915050565b60006bffffffffffffffffffffffff82169050919050565b611ff681611fd5565b811461200157600080fd5b50565b60008135905061201381611fed565b92915050565b60008060006060848603121561203257612031611e39565b5b600061204086828701611e87565b935050602061205186828701612004565b925050604061206286828701611e87565b9150509250925092565b6000806000806080858703121561208657612085611e39565b5b600061209487828801611e87565b94505060206120a587828801611e87565b93505060406120b687828801611eea565b92505060606120c787828801611eea565b91505092959194509250565b6000602082840312156120e9576120e8611e39565b5b60006120f784828501612004565b91505092915050565b61210981611f5d565b811461211457600080fd5b50565b60008135905061212681612100565b92915050565b60006020828403121561214257612141611e39565b5b600061215084828501612117565b91505092915050565b60008060006060848603121561217257612171611e39565b5b600061218086828701611e87565b935050602061219186828701611eea565b92505060406121a286828701611eea565b9150509250925092565b600082825260208201905092915050565b7f4e6f742041646d696e0000000000000000000000000000000000000000000000600082015250565b60006121f36009836121ac565b91506121fe826121bd565b602082019050919050565b60006020820190508181036000830152612222816121e6565b9050919050565b61223281611e5e565b82525050565b600060608201905061224d6000830186612229565b61225a6020830185612229565b6122676040830184612229565b949350505050565b61227881611ec9565b82525050565b6000602082019050612293600083018461226f565b92915050565b6000815190506122a881611e70565b92915050565b6000602082840312156122c4576122c3611e39565b5b60006122d284828501612299565b91505092915050565b60006040820190506122f06000830185612229565b6122fd6020830184612229565b9392505050565b60008151905061231381612100565b92915050565b60006020828403121561232f5761232e611e39565b5b600061233d84828501612304565b91505092915050565b7f496e697469616c697a61626c653a20636f6e747261637420697320616c72656160008201527f647920696e697469616c697a6564000000000000000000000000000000000000602082015250565b60006123a2602e836121ac565b91506123ad82612346565b604082019050919050565b600060208201905081810360008301526123d181612395565b9050919050565b6000819050919050565b600060ff82169050919050565b6000819050919050565b600061241461240f61240a846123d8565b6123ef565b6123e2565b9050919050565b612424816123f9565b82525050565b600060208201905061243f600083018461241b565b92915050565b7f4d61726b6574204e6f74204f70656e0000000000000000000000000000000000600082015250565b600061247b600f836121ac565b915061248682612445565b602082019050919050565b600060208201905081810360008301526124aa8161246e565b9050919050565b7f4e6f7420546f6b656e204f776e65720000000000000000000000000000000000600082015250565b60006124e7600f836121ac565b91506124f2826124b1565b602082019050919050565b60006020820190508181036000830152612516816124da565b9050919050565b7f4e6f7420417070726f7665640000000000000000000000000000000000000000600082015250565b6000612553600c836121ac565b915061255e8261251d565b602082019050919050565b6000602082019050818103600083015261258281612546565b9050919050565b61259281611fd5565b82525050565b60006060820190506125ad6000830186612229565b6125ba6020830185612589565b6125c76040830184612589565b949350505050565b6125d881611f5d565b82525050565b60006060820190506125f36000830186612229565b61260060208301856125cf565b61260d60408301846125cf565b949350505050565b600060408201905061262a6000830185612229565b612637602083018461226f565b9392505050565b60006060820190506126536000830186612229565b612660602083018561226f565b61266d604083018461226f565b949350505050565b600060408201905061268a600083018561226f565b612697602083018461226f565b9392505050565b6000815190506126ad81611ed3565b92915050565b600080604083850312156126ca576126c9611e39565b5b60006126d885828601612299565b92505060206126e98582860161269e565b9150509250929050565b7f726f79616c7479206e6f742076616c6964000000000000000000000000000000600082015250565b60006127296011836121ac565b9150612734826126f3565b602082019050919050565b600060208201905081810360008301526127588161271c565b9050919050565b600081905092915050565b50565b600061277a60008361275f565b91506127858261276a565b600082019050919050565b600061279b8261276d565b9150819050919050565b7f4661696c656420746f2073656e6420424e4220746f20726f79616c747920706160008201527f7965650000000000000000000000000000000000000000000000000000000000602082015250565b60006128016023836121ac565b915061280c826127a5565b604082019050919050565b60006020820190508181036000830152612830816127f4565b9050919050565b7f4661696c656420746f2073656e6420424e4220746f206d61726b657420466565600082015250565b600061286d6020836121ac565b915061287882612837565b602082019050919050565b6000602082019050818103600083015261289c81612860565b9050919050565b7f4e487b7100000000000000000000000000000000000000000000000000000000600052601160045260246000fd5b60006128dd82611ec9565b91506128e883611ec9565b9250828203905081811115612900576128ff6128a3565b5b92915050565b7f4661696c656420746f2073656e6420424e4220746f2073656c6c657200000000600082015250565b600061293c601c836121ac565b915061294782612906565b602082019050919050565b6000602082019050818103600083015261296b8161292f565b9050919050565b60006060820190506129876000830186612229565b6129946020830185612229565b6129a1604083018461226f565b949350505050565b60006129b482611ec9565b91506129bf83611ec9565b92508282026129cd81611ec9565b915082820484148315176129e4576129e36128a3565b5b5092915050565b7f4e487b7100000000000000000000000000000000000000000000000000000000600052601260045260246000fd5b6000612a2582611ec9565b9150612a3083611ec9565b925082612a4057612a3f6129eb565b5b82820490509291505056fea2646970667358221220d4413b9aee4c2a9f48b9c8fbd158c58b7478fedb839d3a10965be2c4b77cd6d264736f6c63430008130033",
  "immutableReferences": {},
  "source": "// SPDX-License-Identifier: MIT\npragma solidity =0.8.19;\n\nimport \"@openzeppelin/contracts/utils/Counters.sol\";\nimport \"@openzeppelin/contracts/token/ERC721/IERC721.sol\";\nimport \"@openzeppelin/contracts/token/common/ERC2981.sol\";\nimport \"@openzeppelin/contracts-upgradeable/proxy/utils/Initializable.sol\";\nimport \"./interface/IMarketplace.sol\";\n\nerror PriceNotMet(address nftAddress, uint256 tokenId, uint256 price);\nerror NotListed(address nftAddress, uint256 tokenId);\nerror AlreadyListed(address nftAddress, uint256 tokenId);\nerror NotOwner();\nerror PriceMustBeAboveZero();\n\n// Error thrown for isNotOwner modifier\nerror IsNotOwner();\n\ncontract NftMarketplace is IMarketplace, Initializable {\n\n    struct ListingInfo{\n        uint256 price;\n        address seller;\n        bool available;\n    }\n\n    struct Listing {\n        uint256 price;\n        address seller;\n    }\n\n    event ItemListed(\n        address indexed seller,\n        address indexed nftAddress,\n        uint256 indexed tokenId,\n        uint256 price\n    );\n\n    event ItemCanceled(\n        address indexed seller,\n        address indexed nftAddress,\n        uint256 indexed tokenId\n    );\n\n    event ItemBought(\n        address indexed buyer,\n        address seller,\n        address indexed nftAddress,\n        uint256 indexed tokenId,\n        uint256 price\n    );\n\n    event AdminModified(\n        address sender,\n        address oldAdmin,\n        address newAdmin\n    );\n\n    event MarkeStatusModified(\n        address sender,\n        bool oldStatus,\n        bool newStatus\n    );\n\n    event MarkeFeeModified(\n        address sender,\n        uint96 oldFee,\n        uint96 newFee\n    );\n\n    event BenificiaryModified(\n        address sender,\n        address oldReceiver,\n        address newReceiver\n    );\n\n    mapping(address => mapping(uint256 => Listing)) private sListings;\n\n    uint96 marketFeeNumerator;\n    address benificiary;\n    address admin;\n    bool marketStatus;\n\n\n    function initialize(address marketFeeReceiver, uint96 marketFeeNum, address administrator) public initializer {\n        marketFeeNumerator = marketFeeNum;\n        benificiary = marketFeeReceiver;\n        admin = administrator;\n        marketStatus = true;\n    }\n\n    /// @custom:oz-upgrades-unsafe-allow constructor\n    constructor() initializer {}\n\n    modifier isAdmin() {\n        require(msg.sender == admin, \"Not Admin\");\n        _;\n    }\n\n    modifier checkStatus() {\n        require(marketStatus, \"Market Not Open\");\n        _;\n    }\n\n    modifier notListed(\n        address nftAddress,\n        uint256 tokenId\n    ) {\n        Listing memory listing = sListings[nftAddress][tokenId];\n        if (listing.price > 0) {\n            revert AlreadyListed(nftAddress, tokenId);\n        }\n        _;\n    }\n\n    modifier isListed(address nftAddress, uint256 tokenId) {\n        Listing memory listing = sListings[nftAddress][tokenId];\n        if (listing.price <= 0) {\n            revert NotListed(nftAddress, tokenId);\n        }\n        _;\n    }\n\n    modifier isOwner(\n        address nftAddress,\n        uint256 tokenId,\n        address spender\n    ) {\n        IERC721 nft = IERC721(nftAddress);\n        address owner = nft.ownerOf(tokenId);\n        if (spender != owner) {\n            revert NotOwner();\n        }\n        _;\n    }\n\n    // IsNotOwner Modifier - Nft Owner can't buy his/her NFT\n    // Modifies buyItem function\n    // Owner should only list, cancel listing or update listing\n    modifier isNotOwner(\n        address nftAddress,\n        uint256 tokenId,\n        address spender\n    ) {\n        IERC721 nft = IERC721(nftAddress);\n        address owner = nft.ownerOf(tokenId);\n        if (spender == owner) {\n            revert IsNotOwner();\n        }\n        _;\n    }\n\n    function modifyAdmin(address ad) isAdmin external {\n        address oldAdmin = admin;\n        admin = ad;\n        emit AdminModified(msg.sender, oldAdmin, ad);\n    }\n\n    function modifyMarketStatus(bool status) isAdmin external {\n        bool oldStatus = marketStatus;\n        marketStatus = status;\n        emit MarkeStatusModified(msg.sender, oldStatus, status);\n    }\n\n    function modifyMarketFee(uint96 feeNum) isAdmin external {\n        uint96 oldFeeNum = marketFeeNumerator;\n        marketFeeNumerator = feeNum;\n        emit MarkeFeeModified(msg.sender, oldFeeNum, feeNum);\n    }\n\n    function modifyBeneficiary(address receiver) isAdmin external {\n        address oldReceiver = benificiary;\n        benificiary = receiver;\n        emit BenificiaryModified(msg.sender, oldReceiver, receiver);\n    }\n\n    /////////////////////\n    // Main Functions //\n    /////////////////////\n    /*\n     * @notice Method for listing NFT\n     * @param nftAddress Address of NFT contract\n     * @param tokenId Token ID of NFT\n     * @param price sale price for each item\n     */\n    function listItem(\n        address nftAddress,\n        address seller,\n        uint256 tokenId,\n        uint256 price\n    )\n        external\n        checkStatus()\n        isOwner(nftAddress, tokenId, seller)\n    {\n        if (msg.sender != 0x4cb680a2589d742c30556e359a352f9C511EeF54) {\n            require(msg.sender == seller, \"Not Token Owner\");\n        }\n        if (price == 0) {\n            revert PriceMustBeAboveZero();\n        }\n        IERC721 nft = IERC721(nftAddress);\n\n        require(nft.isApprovedForAll(seller, address(this)), \"Not Approved\");\n\n        sListings[nftAddress][tokenId] = Listing(price, seller);\n        emit ItemListed(msg.sender, nftAddress, tokenId, price);\n    }\n\n    /*\n     * @notice Method for cancelling listing\n     * @param nftAddress Address of NFT contract\n     * @param tokenId Token ID of NFT\n     */\n    function cancelListing(address nftAddress, uint256 tokenId)\n        external\n        checkStatus()\n        isOwner(nftAddress, tokenId, msg.sender)\n    {\n        delete (sListings[nftAddress][tokenId]);\n        emit ItemCanceled(msg.sender, nftAddress, tokenId);\n    }\n\n    function buyItem(address nftAddress, uint256 tokenId)\n        external\n        payable\n        checkStatus()\n        isListed(nftAddress, tokenId)\n        isNotOwner(nftAddress, tokenId, msg.sender)\n    {\n        Listing memory listedItem = sListings[nftAddress][tokenId];\n        IERC721 nft = IERC721(nftAddress);\n        require(nft.isApprovedForAll(listedItem.seller, address(this)), \"Not Approved\");\n        if (msg.value != listedItem.price) {\n            revert PriceNotMet(nftAddress, tokenId, listedItem.price);\n        }\n\n        {\n            // royalty fee\n            (address royalty_payee, uint256 royalty_fee)  = IERC2981(nftAddress).royaltyInfo(tokenId, listedItem.price);\n            require(royalty_fee < listedItem.price, \"royalty not valid\");\n            (bool sent, ) = payable(royalty_payee).call{value: royalty_fee}(\"\");\n            require(sent, \"Failed to send BNB to royalty payee\");\n\n            // market fee\n            uint256 marketFee = getMarketFee(listedItem.price);\n            (sent, ) = payable(benificiary).call{value: marketFee}(\"\");\n            require(sent, \"Failed to send BNB to market Fee\");\n\n            // seller recieve\n            uint256 remaining = listedItem.price - royalty_fee - marketFee;\n            (sent, ) = payable(listedItem.seller).call{value: remaining}(\"\");\n            require(sent, \"Failed to send BNB to seller\");\n        }\n\n        delete (sListings[nftAddress][tokenId]);\n\n        nft.safeTransferFrom(listedItem.seller, msg.sender, tokenId);\n        emit ItemBought(msg.sender, listedItem.seller, nftAddress, tokenId, listedItem.price);\n    }\n\n    /*\n     * @notice Method for updating listing\n     * @param nftAddress Address of NFT contract\n     * @param tokenId Token ID of NFT\n     * @param newPrice Price in Wei of the item\n     */\n    function updateListing(\n        address nftAddress,\n        uint256 tokenId,\n        uint256 newPrice\n    )\n        external\n        checkStatus()\n        isListed(nftAddress, tokenId)\n        isOwner(nftAddress, tokenId, msg.sender)\n    {\n        //We should check the value of `newPrice` and revert if it's below zero (like we also check in `listItem()`)\n        if (newPrice == 0) {\n            revert PriceMustBeAboveZero();\n        }\n        sListings[nftAddress][tokenId].price = newPrice;\n        emit ItemListed(msg.sender, nftAddress, tokenId, newPrice);\n    }\n\n    function getMarketFee(uint256 price) view internal returns (uint256) {\n        uint256 marketFeeAmount = (price * marketFeeNumerator) / _feeDenominator();\n        return marketFeeAmount;\n    }\n\n    function _feeDenominator() internal pure virtual returns (uint96) {\n        return 10000;\n    }\n\n    function getListingByNFT(address nftAddress, uint256 tokenId)\n        external\n        view\n        returns (ListingInfo memory)\n    {\n        Listing memory tmp = sListings[nftAddress][tokenId];\n        IERC721 nft = IERC721(nftAddress);\n        address owner = nft.ownerOf(tokenId);\n        bool available = true;\n        if(!nft.isApprovedForAll(tmp.seller, address(this))) {\n            available = false;\n        }\n        if (owner != tmp.seller) {\n            available = false;\n        }\n        return ListingInfo(tmp.price, tmp.seller, available);\n\n    }\n\n}",
  "sourcePath": "/Users/liuxi/Desktop/aigc/nft-marketplace/contracts/Marketplace.sol",
  "compiler": {
    "name": "solc",
    "version": "0.8.19+commit.7dd6d404.Emscripten.clang"
  },
  "schemaVersion": "3.4.13",
  "updatedAt": "2023-06-26T04:42:09.204Z",
  "networkType": "ethereum",
  "devdoc": {
    "events": {
      "Initialized(uint8)": {
        "details": "Triggered when the contract has been initialized or reinitialized."
      }
    },
    "kind": "dev",
    "methods": {
      "constructor": {
        "custom:oz-upgrades-unsafe-allow": "constructor"
      }
    },
    "version": 1
  },
  "userdoc": {
    "kind": "user",
    "methods": {},
    "version": 1
  }
}